{
  "_format": "hh-sol-artifact-1",
  "contractName": "CrownFunding",
  "sourceName": "contracts/Crowdfunding.sol",
  "abi": [
    {
      "anonymous": false,
      "inputs": [
        {
          "indexed": false,
          "internalType": "uint256",
          "name": "campaignId",
          "type": "uint256"
        },
        {
          "indexed": false,
          "internalType": "uint256",
          "name": "totalAmount",
          "type": "uint256"
        }
      ],
      "name": "CampaignCompleted",
      "type": "event"
    },
    {
      "anonymous": false,
      "inputs": [
        {
          "indexed": true,
          "internalType": "address",
          "name": "funder",
          "type": "address"
        },
        {
          "indexed": false,
          "internalType": "uint256",
          "name": "amount",
          "type": "uint256"
        }
      ],
      "name": "CampaignFunded",
      "type": "event"
    },
    {
      "anonymous": false,
      "inputs": [
        {
          "indexed": false,
          "internalType": "uint256",
          "name": "time",
          "type": "uint256"
        },
        {
          "indexed": false,
          "internalType": "string",
          "name": "title",
          "type": "string"
        },
        {
          "indexed": true,
          "internalType": "address",
          "name": "benefactor",
          "type": "address"
        }
      ],
      "name": "CampaignStart",
      "type": "event"
    },
    {
      "anonymous": false,
      "inputs": [
        {
          "indexed": true,
          "internalType": "address",
          "name": "donor",
          "type": "address"
        },
        {
          "indexed": false,
          "internalType": "uint256",
          "name": "campaignId",
          "type": "uint256"
        },
        {
          "indexed": false,
          "internalType": "uint256",
          "name": "amount",
          "type": "uint256"
        }
      ],
      "name": "Donated",
      "type": "event"
    },
    {
      "inputs": [],
      "name": "campaignCount",
      "outputs": [
        {
          "internalType": "uint256",
          "name": "",
          "type": "uint256"
        }
      ],
      "stateMutability": "view",
      "type": "function"
    },
    {
      "inputs": [
        {
          "internalType": "uint256",
          "name": "",
          "type": "uint256"
        }
      ],
      "name": "campaigns",
      "outputs": [
        {
          "internalType": "string",
          "name": "title",
          "type": "string"
        },
        {
          "internalType": "string",
          "name": "description",
          "type": "string"
        },
        {
          "internalType": "address payable",
          "name": "benefactor",
          "type": "address"
        },
        {
          "internalType": "uint256",
          "name": "goal",
          "type": "uint256"
        },
        {
          "internalType": "uint256",
          "name": "timeline",
          "type": "uint256"
        },
        {
          "internalType": "uint256",
          "name": "amountRaised",
          "type": "uint256"
        },
        {
          "internalType": "bool",
          "name": "isCompleted",
          "type": "bool"
        }
      ],
      "stateMutability": "view",
      "type": "function"
    },
    {
      "inputs": [
        {
          "internalType": "string",
          "name": "_title",
          "type": "string"
        },
        {
          "internalType": "string",
          "name": "_description",
          "type": "string"
        },
        {
          "internalType": "address payable",
          "name": "_benefactor",
          "type": "address"
        },
        {
          "internalType": "uint256",
          "name": "_goal",
          "type": "uint256"
        },
        {
          "internalType": "uint256",
          "name": "_durationInDays",
          "type": "uint256"
        }
      ],
      "name": "createCampaign",
      "outputs": [],
      "stateMutability": "nonpayable",
      "type": "function"
    },
    {
      "inputs": [
        {
          "internalType": "uint256",
          "name": "campaignId",
          "type": "uint256"
        }
      ],
      "name": "donateCampaign",
      "outputs": [],
      "stateMutability": "payable",
      "type": "function"
    },
    {
      "inputs": [
        {
          "internalType": "uint256",
          "name": "",
          "type": "uint256"
        },
        {
          "internalType": "address",
          "name": "",
          "type": "address"
        }
      ],
      "name": "donations",
      "outputs": [
        {
          "internalType": "uint256",
          "name": "",
          "type": "uint256"
        }
      ],
      "stateMutability": "view",
      "type": "function"
    },
    {
      "inputs": [
        {
          "internalType": "uint256",
          "name": "campaignId",
          "type": "uint256"
        }
      ],
      "name": "endCampaign",
      "outputs": [],
      "stateMutability": "nonpayable",
      "type": "function"
    },
    {
      "inputs": [
        {
          "internalType": "uint256",
          "name": "campaignId",
          "type": "uint256"
        }
      ],
      "name": "getCampaign",
      "outputs": [
        {
          "internalType": "string",
          "name": "title",
          "type": "string"
        },
        {
          "internalType": "string",
          "name": "description",
          "type": "string"
        },
        {
          "internalType": "address",
          "name": "benefactor",
          "type": "address"
        },
        {
          "internalType": "uint256",
          "name": "goal",
          "type": "uint256"
        },
        {
          "internalType": "uint256",
          "name": "amountRaised",
          "type": "uint256"
        },
        {
          "internalType": "uint256",
          "name": "timeline",
          "type": "uint256"
        },
        {
          "internalType": "bool",
          "name": "isCompleted",
          "type": "bool"
        }
      ],
      "stateMutability": "view",
      "type": "function"
    }
  ],
  "bytecode": "0x608060405234801561001057600080fd5b5061198c806100206000396000f3fe6080604052600436106100705760003560e01c80638ffff8b01161004e5780638ffff8b0146101265780639304d12414610142578063dd0408ae1461016b578063ee1554a31461019457610070565b8063141961bc146100755780635598f8cc146100b85780637274e30d146100fb575b600080fd5b34801561008157600080fd5b5061009c60048036038101906100979190610c62565b6101d1565b6040516100af9796959493929190610d8a565b60405180910390f35b3480156100c457600080fd5b506100df60048036038101906100da9190610c62565b610350565b6040516100f29796959493929190610e28565b60405180910390f35b34801561010757600080fd5b506101106104f1565b60405161011d9190610ea5565b60405180910390f35b610140600480360381019061013b9190610c62565b6104f7565b005b34801561014e57600080fd5b5061016960048036038101906101649190611021565b61075f565b005b34801561017757600080fd5b50610192600480360381019061018d9190610c62565b610981565b005b3480156101a057600080fd5b506101bb60048036038101906101b69190611100565b610bf3565b6040516101c89190610ea5565b60405180910390f35b60016020528060005260406000206000915090508060000180546101f49061116f565b80601f01602080910402602001604051908101604052809291908181526020018280546102209061116f565b801561026d5780601f106102425761010080835404028352916020019161026d565b820191906000526020600020905b81548152906001019060200180831161025057829003601f168201915b5050505050908060010180546102829061116f565b80601f01602080910402602001604051908101604052809291908181526020018280546102ae9061116f565b80156102fb5780601f106102d0576101008083540402835291602001916102fb565b820191906000526020600020905b8154815290600101906020018083116102de57829003601f168201915b5050505050908060020160009054906101000a900473ffffffffffffffffffffffffffffffffffffffff16908060030154908060040154908060050154908060060160009054906101000a900460ff16905087565b606080600080600080600080600160008a8152602001908152602001600020905080600001816001018260020160009054906101000a900473ffffffffffffffffffffffffffffffffffffffff168360030154846005015485600401548660060160009054906101000a900460ff168680546103cb9061116f565b80601f01602080910402602001604051908101604052809291908181526020018280546103f79061116f565b80156104445780601f1061041957610100808354040283529160200191610444565b820191906000526020600020905b81548152906001019060200180831161042757829003601f168201915b505050505096508580546104579061116f565b80601f01602080910402602001604051908101604052809291908181526020018280546104839061116f565b80156104d05780601f106104a5576101008083540402835291602001916104d0565b820191906000526020600020905b8154815290600101906020018083116104b357829003601f168201915b50505050509550975097509750975097509750975050919395979092949650565b60005481565b60008111801561050957506000548111155b610548576040517f08c379a000000000000000000000000000000000000000000000000000000000815260040161053f906111ec565b60405180910390fd5b6000600160008381526020019081526020016000209050600034116105a2576040517f08c379a000000000000000000000000000000000000000000000000000000000815260040161059990611258565b60405180910390fd5b80600401544211156105e9576040517f08c379a00000000000000000000000000000000000000000000000000000000081526004016105e0906112c4565b60405180910390fd5b8060060160009054906101000a900460ff161561063b576040517f08c379a000000000000000000000000000000000000000000000000000000000815260040161063290611330565b60405180910390fd5b3481600501600082825461064f919061137f565b92505081905550346002600084815260200190815260200160002060003373ffffffffffffffffffffffffffffffffffffffff1673ffffffffffffffffffffffffffffffffffffffff16815260200190815260200160002060008282546106b6919061137f565b925050819055503373ffffffffffffffffffffffffffffffffffffffff167f4928895ba6723e8e27b15f32e4c3054a1b6c7f8c03f133558d6fa42b3928d14c83346040516107059291906113b3565b60405180910390a23373ffffffffffffffffffffffffffffffffffffffff167f1dff23b965dba2af250c61d628a9dbc3857e77c638b2b4655d1fa20dfdf2a17a346040516107539190610ea5565b60405180910390a25050565b600082116107a2576040517f08c379a000000000000000000000000000000000000000000000000000000000815260040161079990611428565b60405180910390fd5b600081116107e5576040517f08c379a00000000000000000000000000000000000000000000000000000000081526004016107dc90611494565b60405180910390fd5b6000808154809291906107f7906114b4565b91905055506040518060e001604052808681526020018581526020018473ffffffffffffffffffffffffffffffffffffffff168152602001838152602001620151808361084491906114fc565b4261084f919061137f565b815260200160008152602001600015158152506001600080548152602001908152602001600020600082015181600001908161088b91906116ea565b5060208201518160010190816108a191906116ea565b5060408201518160020160006101000a81548173ffffffffffffffffffffffffffffffffffffffff021916908373ffffffffffffffffffffffffffffffffffffffff160217905550606082015181600301556080820151816004015560a0820151816005015560c08201518160060160006101000a81548160ff0219169083151502179055509050508273ffffffffffffffffffffffffffffffffffffffff167f7c476a0051dc1e24c0384c1ca820d8b109a570e3d8e71899a99b03b77ceca1c842876040516109729291906117bc565b60405180910390a25050505050565b60008111801561099357506000548111155b6109d2576040517f08c379a00000000000000000000000000000000000000000000000000000000081526004016109c9906111ec565b60405180910390fd5b60006001600083815260200190815260200160002090508060020160009054906101000a900473ffffffffffffffffffffffffffffffffffffffff1673ffffffffffffffffffffffffffffffffffffffff163373ffffffffffffffffffffffffffffffffffffffff1614610a7b576040517f08c379a0000000000000000000000000000000000000000000000000000000008152600401610a729061185e565b60405180910390fd5b8060040154421180610a9557508060030154816005015410155b610ad4576040517f08c379a0000000000000000000000000000000000000000000000000000000008152600401610acb906118ca565b60405180910390fd5b8060060160009054906101000a900460ff1615610b26576040517f08c379a0000000000000000000000000000000000000000000000000000000008152600401610b1d90611936565b60405180910390fd5b8060020160009054906101000a900473ffffffffffffffffffffffffffffffffffffffff1673ffffffffffffffffffffffffffffffffffffffff166108fc82600501549081150290604051600060405180830381858888f19350505050158015610b94573d6000803e3d6000fd5b5060018160060160006101000a81548160ff0219169083151502179055507f562099c771af1034e0fa4d272eeb12a622c0e7b284ff68212cc5ddd2c1b77d34828260050154604051610be79291906113b3565b60405180910390a15050565b6002602052816000526040600020602052806000526040600020600091509150505481565b6000604051905090565b600080fd5b600080fd5b6000819050919050565b610c3f81610c2c565b8114610c4a57600080fd5b50565b600081359050610c5c81610c36565b92915050565b600060208284031215610c7857610c77610c22565b5b6000610c8684828501610c4d565b91505092915050565b600081519050919050565b600082825260208201905092915050565b60005b83811015610cc9578082015181840152602081019050610cae565b60008484015250505050565b6000601f19601f8301169050919050565b6000610cf182610c8f565b610cfb8185610c9a565b9350610d0b818560208601610cab565b610d1481610cd5565b840191505092915050565b600073ffffffffffffffffffffffffffffffffffffffff82169050919050565b6000610d4a82610d1f565b9050919050565b610d5a81610d3f565b82525050565b610d6981610c2c565b82525050565b60008115159050919050565b610d8481610d6f565b82525050565b600060e0820190508181036000830152610da4818a610ce6565b90508181036020830152610db88189610ce6565b9050610dc76040830188610d51565b610dd46060830187610d60565b610de16080830186610d60565b610dee60a0830185610d60565b610dfb60c0830184610d7b565b98975050505050505050565b6000610e1282610d1f565b9050919050565b610e2281610e07565b82525050565b600060e0820190508181036000830152610e42818a610ce6565b90508181036020830152610e568189610ce6565b9050610e656040830188610e19565b610e726060830187610d60565b610e7f6080830186610d60565b610e8c60a0830185610d60565b610e9960c0830184610d7b565b98975050505050505050565b6000602082019050610eba6000830184610d60565b92915050565b600080fd5b600080fd5b7f4e487b7100000000000000000000000000000000000000000000000000000000600052604160045260246000fd5b610f0282610cd5565b810181811067ffffffffffffffff82111715610f2157610f20610eca565b5b80604052505050565b6000610f34610c18565b9050610f408282610ef9565b919050565b600067ffffffffffffffff821115610f6057610f5f610eca565b5b610f6982610cd5565b9050602081019050919050565b82818337600083830152505050565b6000610f98610f9384610f45565b610f2a565b905082815260208101848484011115610fb457610fb3610ec5565b5b610fbf848285610f76565b509392505050565b600082601f830112610fdc57610fdb610ec0565b5b8135610fec848260208601610f85565b91505092915050565b610ffe81610d3f565b811461100957600080fd5b50565b60008135905061101b81610ff5565b92915050565b600080600080600060a0868803121561103d5761103c610c22565b5b600086013567ffffffffffffffff81111561105b5761105a610c27565b5b61106788828901610fc7565b955050602086013567ffffffffffffffff81111561108857611087610c27565b5b61109488828901610fc7565b94505060406110a58882890161100c565b93505060606110b688828901610c4d565b92505060806110c788828901610c4d565b9150509295509295909350565b6110dd81610e07565b81146110e857600080fd5b50565b6000813590506110fa816110d4565b92915050565b6000806040838503121561111757611116610c22565b5b600061112585828601610c4d565b9250506020611136858286016110eb565b9150509250929050565b7f4e487b7100000000000000000000000000000000000000000000000000000000600052602260045260246000fd5b6000600282049050600182168061118757607f821691505b60208210810361119a57611199611140565b5b50919050565b7f43616d706169676e20646f6573206e6f74206578697374000000000000000000600082015250565b60006111d6601783610c9a565b91506111e1826111a0565b602082019050919050565b60006020820190508181036000830152611205816111c9565b9050919050565b7f446f6e6174696f6e206d7573742062652067726561746572207468616e203000600082015250565b6000611242601f83610c9a565b915061124d8261120c565b602082019050919050565b6000602082019050818103600083015261127181611235565b9050919050565b7f43616d706169676e206973206f76657200000000000000000000000000000000600082015250565b60006112ae601083610c9a565b91506112b982611278565b602082019050919050565b600060208201905081810360008301526112dd816112a1565b9050919050565b7f43616d706169676e20697320616c726561647920636f6d706c65746564000000600082015250565b600061131a601d83610c9a565b9150611325826112e4565b602082019050919050565b600060208201905081810360008301526113498161130d565b9050919050565b7f4e487b7100000000000000000000000000000000000000000000000000000000600052601160045260246000fd5b600061138a82610c2c565b915061139583610c2c565b92508282019050808211156113ad576113ac611350565b5b92915050565b60006040820190506113c86000830185610d60565b6113d56020830184610d60565b9392505050565b7f476f616c206d7573742062652067726561746572207468616e20300000000000600082015250565b6000611412601b83610c9a565b915061141d826113dc565b602082019050919050565b6000602082019050818103600083015261144181611405565b9050919050565b7f4475726174696f6e206d7573742062652067726561746572207468616e203000600082015250565b600061147e601f83610c9a565b915061148982611448565b602082019050919050565b600060208201905081810360008301526114ad81611471565b9050919050565b60006114bf82610c2c565b91507fffffffffffffffffffffffffffffffffffffffffffffffffffffffffffffffff82036114f1576114f0611350565b5b600182019050919050565b600061150782610c2c565b915061151283610c2c565b925082820261152081610c2c565b9150828204841483151761153757611536611350565b5b5092915050565b60008190508160005260206000209050919050565b60006020601f8301049050919050565b600082821b905092915050565b6000600883026115a07fffffffffffffffffffffffffffffffffffffffffffffffffffffffffffffffff82611563565b6115aa8683611563565b95508019841693508086168417925050509392505050565b6000819050919050565b60006115e76115e26115dd84610c2c565b6115c2565b610c2c565b9050919050565b6000819050919050565b611601836115cc565b61161561160d826115ee565b848454611570565b825550505050565b600090565b61162a61161d565b6116358184846115f8565b505050565b5b818110156116595761164e600082611622565b60018101905061163b565b5050565b601f82111561169e5761166f8161153e565b61167884611553565b81016020851015611687578190505b61169b61169385611553565b83018261163a565b50505b505050565b600082821c905092915050565b60006116c1600019846008026116a3565b1980831691505092915050565b60006116da83836116b0565b9150826002028217905092915050565b6116f382610c8f565b67ffffffffffffffff81111561170c5761170b610eca565b5b611716825461116f565b61172182828561165d565b600060209050601f8311600181146117545760008415611742578287015190505b61174c85826116ce565b8655506117b4565b601f1984166117628661153e565b60005b8281101561178a57848901518255600182019150602085019450602081019050611765565b868310156117a757848901516117a3601f8916826116b0565b8355505b6001600288020188555050505b505050505050565b60006040820190506117d16000830185610d60565b81810360208301526117e38184610ce6565b90509392505050565b7f4f6e6c79207468652062656e65666163746f722063616e20656e64207468652060008201527f63616d706169676e000000000000000000000000000000000000000000000000602082015250565b6000611848602883610c9a565b9150611853826117ec565b604082019050919050565b600060208201905081810360008301526118778161183b565b9050919050565b7f43616d706169676e206973207374696c6c206163746976650000000000000000600082015250565b60006118b4601883610c9a565b91506118bf8261187e565b602082019050919050565b600060208201905081810360008301526118e3816118a7565b9050919050565b7f43616d706169676e20616c726561647920636f6d706c65746564000000000000600082015250565b6000611920601a83610c9a565b915061192b826118ea565b602082019050919050565b6000602082019050818103600083015261194f81611913565b905091905056fea2646970667358221220b51497e5e9aa9a4f6fc78ed7c063d185dfb4fe3b39006a8edcf3fe24c67da0f064736f6c63430008180033",
  "linkReferences": {},
  "deployedLinkReferences": {}
}